:1001770012018E1200B312008212015E12000312E6
:0701870000E01201B580EF5A
:0E01B50000007F017ED87D23DDFEDEFCDFFA38
:0101C3002219
:0D01F00000000000000000000000000022E0
:0E01C4007F307E02EF1FAC0670011E4C70F6FD
:0101D200220A
:0F01D300D291D2901201F0C2911201F0C290228B
:0C020A00C291D2901201F0D2910201F0DA
:0E01E200A2009291D2901201F0C2900201F0A0
:0D01FD00D2901201F0A291C2901201F022E6
:050104001201D37FA6EB
:10010900E4FEEF25E0FF9291D2901201F0C2901225
:0901190001F00EBE08EC0201FD2C
:10012200E4FFD291FEEF25E0FFD2901201F0A291FE
:0D013200E4334207C2901201F00EBE08E84F
:01013F00229D
:1001A300AC07120104AF04120109AF0512010902E1
:0201B300020A3E
:02014000AD0709
:10014200120104AF051201091201D37FA71201099E
:0B015200120122D2001201E212020A88
:01015D00227F
:100082001201047F321201091201D37FA712010962
:10009200E4FD12012274162DF8A607BD0504D20054
:1000A2008002C2001201E20DBD06E712020A02013D
:0100B200C489
:1000B3007D0B7F311201A37D087F2C1201A37F2DBD
:1000C3001201A37D807F2E1201A3E4FD7F1E120186
:0D00D300A37F1F1201A37D057F200201A362
:10018E00759850758920E4F587758DFD758BFD7515
:05019E00A890D28E22A2
:0C021600C2AC8F993099FDC299D2AC2285
:10015E00E517F510E516F511E519F512E518F51385
:09016E00E51BF514E51AF5152254
:10000300E5105480FEEEB48024E511F4FDE510F410
:10001300FCED2401F511E43CF51053107FD3E511F9
:10002300946EE510940040157508A08013D3E51174
:10003300946EE5109400400575080A8003E4F50802
:10004300E5125480FEEEB48023E513F4FFE512F4C9
:10005300FEEF2401F513E43EF51253127FD3E513AB
:10006300946EE5129400401375095522D3E5139459
:0E0073006EE512940040047509AA22E4F50916
:01008100225C
:1000E000E508B40A047F0180027F00E508B4A0049B
:1000F0007E0180027E00EE4F6004AF088002AF09EF
:0401000012021622AF
:03000000020222D7
:0C022200787FE4F6D8FD7581200201779A
:00000001FF
