:1000030002080000040F00000000040B00000000C1
:06001300041300000000D0
:1002C800AF8DEFFEAD8B7C00E42DF509EC3EF50813
:1002D800FCAD09E41201297BC57A207930783E12F9
:0E02E800001E1201628F128E118D108C0F22DB
:08036700D290120000C29022A6
:100318007C64EF4E60131CEC60087D0A1DED60F6EE
:0903280080FAEF1F70EC1E80E961
:0103310022A9
:1002F600E50AD394644003E4F50AE50AC39F50096E
:10030600C2A0D2A1C2A2D2A322C2A0C2A1C2A2C22C
:02031600A32220
:10033200E50AD394644003E4F50AE50AC39F500535
:0A034200C2A0D2A122C2A0C2A122D3
:10028E001203673091FDD28E2091FDC28E1202C8EC
:10029E007F507E00120318E47F14FEFDFCAB12AA01
:1002AE0011A910A80FC31201F15007D28E7F1E02A2
:0A02BE000332D28E7F1E1202F622D8
:10034C00438910758DFE758B0CD2AFD2AB12028E19
:02035C0080FB24
:03001B0002035E7F
:09035E00758DFE758B0C050A3249
:10001E00EC4D6011E8497017ED33EC3304600DE4DC
:10002E00FCFFFEFD22E933E8330470F80201CE1224
:10003E00019958046009E4CC248150062850090225
:10004E0001D82840030201D5C0E0EB4A7044B980C4
:10005E0006D0E0FB0201C4EF4E701CBD8008EBFF22
:10006E00EAFEE9FD80EBE98DF0A4FEE5F002010762
:10007E00E9CDF9EAFEEBFFEF89F0A4FCE5F0CE89BD
:10008E00F0A42EFFE435F0CD89F0A42DFEE435F07A
:10009E008067EF4E7005BD80D780C3EF8BF0A4ACA8
:1000AE00F0EE8BF0A42CFCE435F0F8EF8AF0A42CE3
:1000BE00E5F038FCE433CB8DF0A42CFCE5F03BF8F6
:1000CE00EE8AF0A42CFCE5F038F8E433CF89F0A4E6
:1000DE002CFCE5F038CF3400CE89F0A42FFFE5F0EC
:1000EE003EFEE433C98DF0A42EFEE5F039CD8AF044
:1000FE00A42FFFE5F03EFEE43DFD33D0E0FB5007BC
:10010E000BBB000F0201D8EC2CFCEF33FFEE33FEDD
:06011E00ED33FD0201B00B
:1001240075F020800E75F010800575F0087D007E56
:10013400007F003392D530D5031201E3EC33401035
:10014400EF33FFEE33FEED33FDEC33FCD5F0ED225F
:0E015400E5F0247EA2D513CC92E7CDCEFF229B
:10016200EDD2E7CD33EC3392D524814006E4FFFE95
:10017200FDFC22FCE4CFCECDCC24E0501174FF80F4
:10018200EDC3CC13CCCD13CDCE13CECF13CF047091
:07019200F030D5DE0201E3AD
:10019900E9D2E7C933E833F892D5EDD2E7CD33ECAC
:0701A90033FC5002B2D52225
:1001B000EC30E7100FBF000C0EBE00080DBD0004B0
:1001C0000BEB6014A2D5EB13FCED92E7FD2274FF5C
:1001D000FCFDFEFF22E480F8A2D574FF13FC7D80B5
:0301E000E480EFC9
:03000000020202F7
:0C020200787FE4F6D8FD758116020249F1
:0E01E300C3E49FFFE49EFEE49DFDE49CFC222D
:1001F100EB9FF5F0EA9E42F0E99D42F0E89C45F064
:0102010022DA
:10020E0002034CE493A3F8E493A34003F68001F2B7
:10021E0008DFF48029E493A3F85407240CC8C333F1
:10022E00C4540F4420C8834004F456800146F6DFC0
:10023E00E4800B0102040810204080900003E47E4D
:10024E00019360BCA3FF543F30E509541FFEE493B5
:10025E00A360010ECF54C025E060A840B8E493A37C
:10026E00FAE493A3F8E493A3C8C582C8CAC583CAA7
:10027E00F0A3C8C582C8CAC583CADFE9DEE780BE5F
:0100190000E6
:00000001FF
