:04023B0075B0012277
:10010E00E50FD394644003E4F50FC3E50F9FE49E1F
:10011E005009C2A0D2A1C2A2D2A322C2A0C2A1C221
:04012E00A2C2A322A4
:09023200C2A0C2A1C2A2C2A32213
:10017900E50FD394644003E4F50FC3E50F9FE49EB4
:0C0189005005C2A0D2A122C2A0C2A12237
:10019500D3EF9400EE9400400F7DC77C01DCFEDDBB
:0801A500FAEF1F70EB1E80E869
:0101AD00222F
:10013200D2B630B7057510018003E4F510E510144E
:10014200600A04700E7F1E7E000201797F3C7E00F1
:0301520012010E89
:010155002287
:1001AE00C291C2908F807F057E00120195D2907F02
:0901BE00057E00120195C2902299
:1001C700D291C2908F807F057E00120195D2907FD9
:0901D700057E00120195C2902280
:1001F6007F381201AE7F0C1201AE7F061201AE7F70
:04020600010201AE42
:0F020A0020A406D2B5D2008004C2B5C200A20063
:0102190022C2
:0E021A0081838587898B8D80828486888A8C7B
:0902280007080000120705061684
:1000D900C2B200C2B300D2B200E4FEEF1392B1EF94
:1000E900C313FFD2B300C2B3000EBE08EEE4FEEDA7
:1000F9001392B1EDC313FDD2B300C2B3000EBE0813
:04010900EEC2B20090
:01010D0022CF
:10008F00C2B200C2B300D2B200E4FDEF1392B1EFDF
:10009F00C313FFD2B300C2B3000DBD08EE00E4FDE1
:1000AF00A2B1E433FFC43333335480FCEEC3134C9B
:1000BF00FED2B300C2B3000DBD08E5C2B200D2B389
:0900CF0000C2B100D2B100AF067D
:0100D8002205
:10015600E4FD7F8E1200D9E4FCEC90022193FF743B
:10016600082CF8E6FD1200D90CBC07ED7D807F8EC9
:030176000200D9AB
:1001E000E4FBEB90021A93FF12008F74082BF8A621
:0501F000070BBB07ED49
:0101F50022E7
:03000000020003F8
:0C000300787FE4F6D8FD75812002004AE9
:10000F0002023BE493A3F8E493A34003F68001F2CA
:10001F0008DFF48029E493A3F85407240CC8C333F2
:10002F00C4540F4420C8834004F456800146F6DFC1
:10003F00E4800B0102040810204080900228E47E27
:10004F00019360BCA3FF543F30E509541FFEE493B6
:10005F00A360010ECF54C025E060A840B8E493A37D
:10006F00FAE493A3F8E493A3C8C582C8CAC583CAA8
:10007F00F0A3C8C582C8CAC583CADFE9DEE780BE60
:0102310000CC
:00000001FF
