:0300BA000108003A
:0B00170012000385088085089080F827
:10000300759850758920758DFD758BFD75A890D2F7
:04001300AFD28E22B8
:030023000200B226
:0800B200C298859908C298323A
:03000000020026D5
:0C002600787FE4F6D8FD75810802006DBB
:10003200020017E493A3F8E493A34003F68001F2CD
:1000420008DFF48029E493A3F85407240CC8C333CF
:10005200C4540F4420C8834004F456800146F6DF9E
:10006200E4800B01020408102040809000BAE47E74
:10007200019360BCA3FF543F30E509541FFEE49393
:10008200A360010ECF54C025E060A840B8E493A35A
:10009200FAE493A3F8E493A3C8C582C8CAC583CA85
:1000A200F0A3C8C582C8CAC583CADFE9DEE780BE3D
:0100BD000042
:00000001FF
