:100006003F065B4F666D7D077F6F777C395E797142
:07010600D288D2A8D2AF227B
:03000300020016E2
:05001600D2AB05083229
:0E00E100438910758DB0758BB0D2AFD28E22D0
:03001B000200BF21
:1000BF00C0E0C0D0758DB0758BB00509E509B414DB
:1000CF000C750A0085080B750900750800D0D0D093
:0200DF00E0320D
:10007300C2A2C2A3C2A4AE0AAF0B7C007D6412006D
:100083001E7E007F0ACFCDCFCECCCE12001E7406CB
:100093002FF58274003EF583E493F580D2A2C2A3C8
:1000A300C2A4AE0AAF0B7C007D0A12001E74062D9B
:0C00B300F58274003CF583E493F5802294
:0B00FB001201061200E112007380FBEE
:030000000200EF0C
:0C00EF00787FE4F6D8FD75810B0200FB61
:10001E00BC000BBE0029EF8DF084FFADF022E4CCC6
:10002E00F875F008EF2FFFEE33FEEC33FCEE9DEC8F
:10003E00984005FCEE9DFE0FD5F0E9E4CEFD22EDD5
:10004E00F8F5F0EE8420D21CFEADF075F008EF2F1F
:10005E00FFED33FD4007985006D5F0F222C398FD10
:05006E000FD5F0EA22AD
:00000001FF
