:1000F600758901758C4C758ACFD2AFD2A9D28CE5A1
:100106000FC394015008D2A0C2A1D2A280F1C2A00E
:06011600C2A1C2A380E9B2
:03000B0002013AB5
:10013A00C0E0C0D0758C4C758ACF050FE50FB405A9
:09014A0003750F00D0D0D0E032A3
:0600030001100101110AC9
:10011C00D3EF9400EE940040147D6E7C00ED1D70C6
:0D012C00011CED4C70F7EF1F70E61E80E324
:0101390022A3
:10009A00D280D290E5116016E4FBEBC39511500EA5
:1000AA00C2A1C2A37FE87E0312011C0B80ECE4FB11
:1000BA00EBC39510500ED2A0D2A27FE87E031201A4
:0400CA001C0B80EC9F
:0100CE00220F
:1000CF00D280D290E511600FE4FFEFC39511500776
:1000DF00D2A1D2A30F80F3E4FFEFC395105007C254
:0600EF00A0C2A20F80F385
:0100F50022E8
:0D015300D280C2A0C2A1D290C2A0C2A1223F
:0D016000D280D2A0C2A1D290C2A2C2A3221E
:0D016D00D280C2A0C2A1D290D2A2C2A32211
:0300000002000EED
:0C000E00787FE4F6D8FD758111020055E2
:10001A000200F6E493A3F8E493A34003F68001F206
:10002A0008DFF48029E493A3F85407240CC8C333E7
:10003A00C4540F4420C8834004F456800146F6DFB6
:10004A00E4800B0102040810204080900003E47E43
:10005A00019360BCA3FF543F30E509541FFEE493AB
:10006A00A360010ECF54C025E060A840B8E493A372
:10007A00FAE493A3F8E493A3C8C582C8CAC583CA9D
:10008A00F0A3C8C582C8CAC583CADFE9DEE780BE55
:0100090000F6
:00000001FF
